{
  "_format": "hh-sol-artifact-1",
  "contractName": "MyEpicNFT",
  "sourceName": "contracts/MyEpicNFT.sol",
  "abi": [
    {
      "inputs": [],
      "stateMutability": "nonpayable",
      "type": "constructor"
    },
    {
      "anonymous": false,
      "inputs": [
        {
          "indexed": true,
          "internalType": "address",
          "name": "owner",
          "type": "address"
        },
        {
          "indexed": true,
          "internalType": "address",
          "name": "approved",
          "type": "address"
        },
        {
          "indexed": true,
          "internalType": "uint256",
          "name": "tokenId",
          "type": "uint256"
        }
      ],
      "name": "Approval",
      "type": "event"
    },
    {
      "anonymous": false,
      "inputs": [
        {
          "indexed": true,
          "internalType": "address",
          "name": "owner",
          "type": "address"
        },
        {
          "indexed": true,
          "internalType": "address",
          "name": "operator",
          "type": "address"
        },
        {
          "indexed": false,
          "internalType": "bool",
          "name": "approved",
          "type": "bool"
        }
      ],
      "name": "ApprovalForAll",
      "type": "event"
    },
    {
      "anonymous": false,
      "inputs": [
        {
          "indexed": false,
          "internalType": "address",
          "name": "sender",
          "type": "address"
        },
        {
          "indexed": false,
          "internalType": "uint256",
          "name": "tokenId",
          "type": "uint256"
        }
      ],
      "name": "NewEpicNFTMinted",
      "type": "event"
    },
    {
      "anonymous": false,
      "inputs": [
        {
          "indexed": true,
          "internalType": "address",
          "name": "from",
          "type": "address"
        },
        {
          "indexed": true,
          "internalType": "address",
          "name": "to",
          "type": "address"
        },
        {
          "indexed": true,
          "internalType": "uint256",
          "name": "tokenId",
          "type": "uint256"
        }
      ],
      "name": "Transfer",
      "type": "event"
    },
    {
      "inputs": [
        {
          "internalType": "address",
          "name": "to",
          "type": "address"
        },
        {
          "internalType": "uint256",
          "name": "tokenId",
          "type": "uint256"
        }
      ],
      "name": "approve",
      "outputs": [],
      "stateMutability": "nonpayable",
      "type": "function"
    },
    {
      "inputs": [
        {
          "internalType": "address",
          "name": "owner",
          "type": "address"
        }
      ],
      "name": "balanceOf",
      "outputs": [
        {
          "internalType": "uint256",
          "name": "",
          "type": "uint256"
        }
      ],
      "stateMutability": "view",
      "type": "function"
    },
    {
      "inputs": [
        {
          "internalType": "uint256",
          "name": "tokenId",
          "type": "uint256"
        }
      ],
      "name": "getApproved",
      "outputs": [
        {
          "internalType": "address",
          "name": "",
          "type": "address"
        }
      ],
      "stateMutability": "view",
      "type": "function"
    },
    {
      "inputs": [
        {
          "internalType": "address",
          "name": "owner",
          "type": "address"
        },
        {
          "internalType": "address",
          "name": "operator",
          "type": "address"
        }
      ],
      "name": "isApprovedForAll",
      "outputs": [
        {
          "internalType": "bool",
          "name": "",
          "type": "bool"
        }
      ],
      "stateMutability": "view",
      "type": "function"
    },
    {
      "inputs": [],
      "name": "makeAnEpicNFT",
      "outputs": [],
      "stateMutability": "nonpayable",
      "type": "function"
    },
    {
      "inputs": [],
      "name": "name",
      "outputs": [
        {
          "internalType": "string",
          "name": "",
          "type": "string"
        }
      ],
      "stateMutability": "view",
      "type": "function"
    },
    {
      "inputs": [
        {
          "internalType": "uint256",
          "name": "tokenId",
          "type": "uint256"
        }
      ],
      "name": "ownerOf",
      "outputs": [
        {
          "internalType": "address",
          "name": "",
          "type": "address"
        }
      ],
      "stateMutability": "view",
      "type": "function"
    },
    {
      "inputs": [
        {
          "internalType": "uint256",
          "name": "tokenId",
          "type": "uint256"
        }
      ],
      "name": "pickRandomColor",
      "outputs": [
        {
          "internalType": "string",
          "name": "",
          "type": "string"
        }
      ],
      "stateMutability": "view",
      "type": "function"
    },
    {
      "inputs": [
        {
          "internalType": "uint256",
          "name": "tokenId",
          "type": "uint256"
        }
      ],
      "name": "pickRandomFirstWord",
      "outputs": [
        {
          "internalType": "string",
          "name": "",
          "type": "string"
        }
      ],
      "stateMutability": "view",
      "type": "function"
    },
    {
      "inputs": [
        {
          "internalType": "uint256",
          "name": "tokenId",
          "type": "uint256"
        }
      ],
      "name": "pickRandomSecondWord",
      "outputs": [
        {
          "internalType": "string",
          "name": "",
          "type": "string"
        }
      ],
      "stateMutability": "view",
      "type": "function"
    },
    {
      "inputs": [
        {
          "internalType": "uint256",
          "name": "tokenId",
          "type": "uint256"
        }
      ],
      "name": "pickRandomThirdWord",
      "outputs": [
        {
          "internalType": "string",
          "name": "",
          "type": "string"
        }
      ],
      "stateMutability": "view",
      "type": "function"
    },
    {
      "inputs": [
        {
          "internalType": "address",
          "name": "from",
          "type": "address"
        },
        {
          "internalType": "address",
          "name": "to",
          "type": "address"
        },
        {
          "internalType": "uint256",
          "name": "tokenId",
          "type": "uint256"
        }
      ],
      "name": "safeTransferFrom",
      "outputs": [],
      "stateMutability": "nonpayable",
      "type": "function"
    },
    {
      "inputs": [
        {
          "internalType": "address",
          "name": "from",
          "type": "address"
        },
        {
          "internalType": "address",
          "name": "to",
          "type": "address"
        },
        {
          "internalType": "uint256",
          "name": "tokenId",
          "type": "uint256"
        },
        {
          "internalType": "bytes",
          "name": "_data",
          "type": "bytes"
        }
      ],
      "name": "safeTransferFrom",
      "outputs": [],
      "stateMutability": "nonpayable",
      "type": "function"
    },
    {
      "inputs": [
        {
          "internalType": "address",
          "name": "operator",
          "type": "address"
        },
        {
          "internalType": "bool",
          "name": "approved",
          "type": "bool"
        }
      ],
      "name": "setApprovalForAll",
      "outputs": [],
      "stateMutability": "nonpayable",
      "type": "function"
    },
    {
      "inputs": [
        {
          "internalType": "bytes4",
          "name": "interfaceId",
          "type": "bytes4"
        }
      ],
      "name": "supportsInterface",
      "outputs": [
        {
          "internalType": "bool",
          "name": "",
          "type": "bool"
        }
      ],
      "stateMutability": "view",
      "type": "function"
    },
    {
      "inputs": [],
      "name": "symbol",
      "outputs": [
        {
          "internalType": "string",
          "name": "",
          "type": "string"
        }
      ],
      "stateMutability": "view",
      "type": "function"
    },
    {
      "inputs": [
        {
          "internalType": "uint256",
          "name": "tokenId",
          "type": "uint256"
        }
      ],
      "name": "tokenURI",
      "outputs": [
        {
          "internalType": "string",
          "name": "",
          "type": "string"
        }
      ],
      "stateMutability": "view",
      "type": "function"
    },
    {
      "inputs": [
        {
          "internalType": "address",
          "name": "from",
          "type": "address"
        },
        {
          "internalType": "address",
          "name": "to",
          "type": "address"
        },
        {
          "internalType": "uint256",
          "name": "tokenId",
          "type": "uint256"
        }
      ],
      "name": "transferFrom",
      "outputs": [],
      "stateMutability": "nonpayable",
      "type": "function"
    }
  ],
  "bytecode": "0x608060405260405180610100016040528060d3815260200162004e0a60d39139600890805190602001906200003692919062000f55565b5060405180608001604052806056815260200162004edd60569139600990805190602001906200006892919062000f55565b50604051806101c001604052806040518060400160405280600581526020017f476f6f667900000000000000000000000000000000000000000000000000000081525081526020016040518060400160405280600681526020017f517569726b79000000000000000000000000000000000000000000000000000081525081526020016040518060400160405280600c81526020017f4f7374656e746174696f7573000000000000000000000000000000000000000081525081526020016040518060400160405280600681526020017f416273757264000000000000000000000000000000000000000000000000000081525081526020016040518060400160405280600a81526020017f477265676172696f75730000000000000000000000000000000000000000000081525081526020016040518060400160405280600781526020017f447562696f75730000000000000000000000000000000000000000000000000081525081526020016040518060400160405280600681526020017f476f6f676c79000000000000000000000000000000000000000000000000000081525081526020016040518060400160405280600681526020017f4e6f6f676c79000000000000000000000000000000000000000000000000000081525081526020016040518060400160405280600681526020017f576f6f676c79000000000000000000000000000000000000000000000000000081525081526020016040518060400160405280600681526020017f537567617279000000000000000000000000000000000000000000000000000081525081526020016040518060400160405280600a81526020017f48616e64736f6d656c790000000000000000000000000000000000000000000081525081526020016040518060400160405280600b81526020017f496e63726564756c6f757300000000000000000000000000000000000000000081525081526020016040518060400160405280600981526020017f46616e61746963616c000000000000000000000000000000000000000000000081525081526020016040518060400160405280600881526020017f5375706572626c79000000000000000000000000000000000000000000000000815250815250600a90600e620003bf92919062000fe6565b50604051806101a001604052806040518060400160405280600a81526020017f4a75676765726e6175740000000000000000000000000000000000000000000081525081526020016040518060400160405280600881526020017f5461626c65746f7000000000000000000000000000000000000000000000000081525081526020016040518060400160405280600681526020017f436f75676172000000000000000000000000000000000000000000000000000081525081526020016040518060400160405280600781526020017f5175656e74696e0000000000000000000000000000000000000000000000000081525081526020016040518060400160405280600681526020017f426f6f676572000000000000000000000000000000000000000000000000000081525081526020016040518060400160405280600681526020017f536572766572000000000000000000000000000000000000000000000000000081525081526020016040518060400160405280600681526020017f4368616e6765000000000000000000000000000000000000000000000000000081525081526020016040518060400160405280600881526020017f476f6f646e65737300000000000000000000000000000000000000000000000081525081526020016040518060400160405280600581526020017f477261636500000000000000000000000000000000000000000000000000000081525081526020016040518060400160405280600d81526020017f496d706f73736962696c6974790000000000000000000000000000000000000081525081526020016040518060400160405280600981526020017f4365727461696e7479000000000000000000000000000000000000000000000081525081526020016040518060400160405280600381526020017f476f64000000000000000000000000000000000000000000000000000000000081525081526020016040518060400160405280600681526020017f576f6e6465720000000000000000000000000000000000000000000000000000815250815250600b90600d620006db9291906200104d565b50604051806101e001604052806040518060400160405280600581526020017f466c75696400000000000000000000000000000000000000000000000000000081525081526020016040518060400160405280600581526020017f536f6c696400000000000000000000000000000000000000000000000000000081525081526020016040518060400160405280600381526020017f476173000000000000000000000000000000000000000000000000000000000081525081526020016040518060400160405280600781526020017f426f68656d69610000000000000000000000000000000000000000000000000081525081526020016040518060400160405280600781526020017f46616e746173790000000000000000000000000000000000000000000000000081525081526020016040518060400160405280600581526020017f48756c756400000000000000000000000000000000000000000000000000000081525081526020016040518060400160405280600481526020017f536861690000000000000000000000000000000000000000000000000000000081525081526020016040518060400160405280600681526020017f526f6f6b6965000000000000000000000000000000000000000000000000000081525081526020016040518060400160405280600681526020017f436f6f6b6965000000000000000000000000000000000000000000000000000081525081526020016040518060400160405280600581526020017f485454505300000000000000000000000000000000000000000000000000000081525081526020016040518060400160405280600581526020017f537465706800000000000000000000000000000000000000000000000000000081525081526020016040518060400160405280600581526020017f437572727900000000000000000000000000000000000000000000000000000081525081526020016040518060400160405280600481526020017f4b6c61790000000000000000000000000000000000000000000000000000000081525081526020016040518060400160405280600381526020017f526179000000000000000000000000000000000000000000000000000000000081525081526020016040518060400160405280600481526020017f426f6f7400000000000000000000000000000000000000000000000000000000815250815250600c90600f62000a6d929190620010b4565b50604051806101a001604052806040518060400160405280600381526020017f726564000000000000000000000000000000000000000000000000000000000081525081526020016040518060400160405280600481526020017f626c75650000000000000000000000000000000000000000000000000000000081525081526020016040518060400160405280600681526020017f6f72616e6765000000000000000000000000000000000000000000000000000081525081526020016040518060400160405280600681526020017f79656c6c6f77000000000000000000000000000000000000000000000000000081525081526020016040518060400160405280600581526020017f677265656e00000000000000000000000000000000000000000000000000000081525081526020016040518060400160405280600581526020017f626c61636b00000000000000000000000000000000000000000000000000000081525081526020016040518060400160405280600581526020017f776869746500000000000000000000000000000000000000000000000000000081525081526020016040518060400160405280600681526020017f707572706c65000000000000000000000000000000000000000000000000000081525081526020016040518060400160405280600781526020017f233332413138390000000000000000000000000000000000000000000000000081525081526020016040518060400160405280600781526020017f234542433243420000000000000000000000000000000000000000000000000081525081526020016040518060400160405280600781526020017f234646363334370000000000000000000000000000000000000000000000000081525081526020016040518060400160405280600781526020017f233430453044300000000000000000000000000000000000000000000000000081525081526020016040518060400160405280600781526020017f2330303030383000000000000000000000000000000000000000000000000000815250815250600d90600d62000d899291906200104d565b5034801562000d9757600080fd5b506040518060400160405280600b81526020017f5068756e506872617365730000000000000000000000000000000000000000008152506040518060400160405280600481526020017f5048554e00000000000000000000000000000000000000000000000000000000815250816000908051906020019062000e1c92919062000f55565b50806001908051906020019062000e3592919062000f55565b50505062000e836040518060400160405280601681526020017f57656c636f6d6520746f20746865206d61747269782e0000000000000000000081525062000e8960201b6200127a1760201c565b620012d5565b62000f298160405160240162000ea09190620011e9565b6040516020818303038152906040527f41304fac000000000000000000000000000000000000000000000000000000007bffffffffffffffffffffffffffffffffffffffffffffffffffffffff19166020820180517bffffffffffffffffffffffffffffffffffffffffffffffffffffffff838183161783525050505062000f2c60201b60201c565b50565b60008151905060006a636f6e736f6c652e6c6f679050602083016000808483855afa5050505050565b82805462000f63906200125f565b90600052602060002090601f01602090048101928262000f87576000855562000fd3565b82601f1062000fa257805160ff191683800117855562000fd3565b8280016001018555821562000fd3579182015b8281111562000fd257825182559160200191906001019062000fb5565b5b50905062000fe291906200111b565b5090565b8280548282559060005260206000209081019282156200103a579160200282015b82811115620010395782518290805190602001906200102892919062000f55565b509160200191906001019062001007565b5b5090506200104991906200113a565b5090565b828054828255906000526020600020908101928215620010a1579160200282015b82811115620010a05782518290805190602001906200108f92919062000f55565b50916020019190600101906200106e565b5b509050620010b091906200113a565b5090565b82805482825590600052602060002090810192821562001108579160200282015b8281111562001107578251829080519060200190620010f692919062000f55565b5091602001919060010190620010d5565b5b5090506200111791906200113a565b5090565b5b80821115620011365760008160009055506001016200111c565b5090565b5b808211156200115e576000818162001154919062001162565b506001016200113b565b5090565b50805462001170906200125f565b6000825580601f10620011845750620011a5565b601f016020900490600052602060002090810190620011a491906200111b565b5b50565b6000620011b5826200120d565b620011c1818562001218565b9350620011d381856020860162001229565b620011de81620012c4565b840191505092915050565b60006020820190508181036000830152620012058184620011a8565b905092915050565b600081519050919050565b600082825260208201905092915050565b60005b83811015620012495780820151818401526020810190506200122c565b8381111562001259576000848401525b50505050565b600060028204905060018216806200127857607f821691505b602082108114156200128f576200128e62001295565b5b50919050565b7f4e487b7100000000000000000000000000000000000000000000000000000000600052602260045260246000fd5b6000601f19601f8301169050919050565b613b2580620012e56000396000f3fe608060405234801561001057600080fd5b50600436106101165760003560e01c806370a08231116100a2578063b88d4fde11610071578063b88d4fde14610317578063c575757a14610333578063c87b56dd14610363578063de9d132f14610393578063e985e9c51461039d57610116565b806370a082311461027d57806395d89b41146102ad578063a22cb465146102cb578063b187301f146102e757610116565b806323b872dd116100e957806323b872dd146101b55780632de38d68146101d157806342842e0e14610201578063514dc8c61461021d5780636352211e1461024d57610116565b806301ffc9a71461011b57806306fdde031461014b578063081812fc14610169578063095ea7b314610199575b600080fd5b6101356004803603810190610130919061267a565b6103cd565b604051610142919061337e565b60405180910390f35b6101536104af565b6040516101609190613399565b60405180910390f35b610183600480360381019061017e91906126cc565b610541565b60405161019091906132ee565b60405180910390f35b6101b360048036038101906101ae919061263e565b6105c6565b005b6101cf60048036038101906101ca9190612538565b6106de565b005b6101eb60048036038101906101e691906126cc565b61073e565b6040516101f89190613399565b60405180910390f35b61021b60048036038101906102169190612538565b61085c565b005b610237600480360381019061023291906126cc565b61087c565b6040516102449190613399565b60405180910390f35b610267600480360381019061026291906126cc565b61099a565b60405161027491906132ee565b60405180910390f35b610297600480360381019061029291906124d3565b610a4c565b6040516102a49190613619565b60405180910390f35b6102b5610b04565b6040516102c29190613399565b60405180910390f35b6102e560048036038101906102e09190612602565b610b96565b005b61030160048036038101906102fc91906126cc565b610bac565b60405161030e9190613399565b60405180910390f35b610331600480360381019061032c9190612587565b610cca565b005b61034d600480360381019061034891906126cc565b610d2c565b60405161035a9190613399565b60405180910390f35b61037d600480360381019061037891906126cc565b610e4a565b60405161038a9190613399565b60405180910390f35b61039b610f9c565b005b6103b760048036038101906103b291906124fc565b6111e6565b6040516103c4919061337e565b60405180910390f35b60007f80ac58cd000000000000000000000000000000000000000000000000000000007bffffffffffffffffffffffffffffffffffffffffffffffffffffffff1916827bffffffffffffffffffffffffffffffffffffffffffffffffffffffff1916148061049857507f5b5e139f000000000000000000000000000000000000000000000000000000007bffffffffffffffffffffffffffffffffffffffffffffffffffffffff1916827bffffffffffffffffffffffffffffffffffffffffffffffffffffffff1916145b806104a857506104a782611313565b5b9050919050565b6060600080546104be906138b8565b80601f01602080910402602001604051908101604052809291908181526020018280546104ea906138b8565b80156105375780601f1061050c57610100808354040283529160200191610537565b820191906000526020600020905b81548152906001019060200180831161051a57829003601f168201915b5050505050905090565b600061054c8261137d565b61058b576040517f08c379a000000000000000000000000000000000000000000000000000000000815260040161058290613579565b60405180910390fd5b6004600083815260200190815260200160002060009054906101000a900473ffffffffffffffffffffffffffffffffffffffff169050919050565b60006105d18261099a565b90508073ffffffffffffffffffffffffffffffffffffffff168373ffffffffffffffffffffffffffffffffffffffff161415610642576040517f08c379a0000000000000000000000000000000000000000000000000000000008152600401610639906135d9565b60405180910390fd5b8073ffffffffffffffffffffffffffffffffffffffff166106616113e9565b73ffffffffffffffffffffffffffffffffffffffff161480610690575061068f8161068a6113e9565b6111e6565b5b6106cf576040517f08c379a00000000000000000000000000000000000000000000000000000000081526004016106c6906134b9565b60405180910390fd5b6106d983836113f1565b505050565b6106ef6106e96113e9565b826114aa565b61072e576040517f08c379a0000000000000000000000000000000000000000000000000000000008152600401610725906135f9565b60405180910390fd5b610739838383611588565b505050565b6060600061077261074e846117e4565b60405160200161075e9190613288565b604051602081830303815290604052611991565b9050600a80549050816107859190613933565b9050600a81815481106107c1577f4e487b7100000000000000000000000000000000000000000000000000000000600052603260045260246000fd5b9060005260206000200180546107d6906138b8565b80601f0160208091040260200160405190810160405280929190818152602001828054610802906138b8565b801561084f5780601f106108245761010080835404028352916020019161084f565b820191906000526020600020905b81548152906001019060200180831161083257829003601f168201915b5050505050915050919050565b61087783838360405180602001604052806000815250610cca565b505050565b606060006108b061088c846117e4565b60405160200161089c91906132cc565b604051602081830303815290604052611991565b9050600d80549050816108c39190613933565b9050600d81815481106108ff577f4e487b7100000000000000000000000000000000000000000000000000000000600052603260045260246000fd5b906000526020600020018054610914906138b8565b80601f0160208091040260200160405190810160405280929190818152602001828054610940906138b8565b801561098d5780601f106109625761010080835404028352916020019161098d565b820191906000526020600020905b81548152906001019060200180831161097057829003601f168201915b5050505050915050919050565b6000806002600084815260200190815260200160002060009054906101000a900473ffffffffffffffffffffffffffffffffffffffff169050600073ffffffffffffffffffffffffffffffffffffffff168173ffffffffffffffffffffffffffffffffffffffff161415610a43576040517f08c379a0000000000000000000000000000000000000000000000000000000008152600401610a3a906134f9565b60405180910390fd5b80915050919050565b60008073ffffffffffffffffffffffffffffffffffffffff168273ffffffffffffffffffffffffffffffffffffffff161415610abd576040517f08c379a0000000000000000000000000000000000000000000000000000000008152600401610ab4906134d9565b60405180910390fd5b600360008373ffffffffffffffffffffffffffffffffffffffff1673ffffffffffffffffffffffffffffffffffffffff168152602001908152602001600020549050919050565b606060018054610b13906138b8565b80601f0160208091040260200160405190810160405280929190818152602001828054610b3f906138b8565b8015610b8c5780601f10610b6157610100808354040283529160200191610b8c565b820191906000526020600020905b815481529060010190602001808311610b6f57829003601f168201915b5050505050905090565b610ba8610ba16113e9565b83836119c4565b5050565b60606000610be0610bbc846117e4565b604051602001610bcc9190613221565b604051602081830303815290604052611991565b9050600b8054905081610bf39190613933565b9050600b8181548110610c2f577f4e487b7100000000000000000000000000000000000000000000000000000000600052603260045260246000fd5b906000526020600020018054610c44906138b8565b80601f0160208091040260200160405190810160405280929190818152602001828054610c70906138b8565b8015610cbd5780601f10610c9257610100808354040283529160200191610cbd565b820191906000526020600020905b815481529060010190602001808311610ca057829003601f168201915b5050505050915050919050565b610cdb610cd56113e9565b836114aa565b610d1a576040517f08c379a0000000000000000000000000000000000000000000000000000000008152600401610d11906135f9565b60405180910390fd5b610d2684848484611b31565b50505050565b60606000610d60610d3c846117e4565b604051602001610d4c91906131ff565b604051602081830303815290604052611991565b9050600c8054905081610d739190613933565b9050600c8181548110610daf577f4e487b7100000000000000000000000000000000000000000000000000000000600052603260045260246000fd5b906000526020600020018054610dc4906138b8565b80601f0160208091040260200160405190810160405280929190818152602001828054610df0906138b8565b8015610e3d5780601f10610e1257610100808354040283529160200191610e3d565b820191906000526020600020905b815481529060010190602001808311610e2057829003601f168201915b5050505050915050919050565b6060610e558261137d565b610e94576040517f08c379a0000000000000000000000000000000000000000000000000000000008152600401610e8b90613559565b60405180910390fd5b6000600660008481526020019081526020016000208054610eb4906138b8565b80601f0160208091040260200160405190810160405280929190818152602001828054610ee0906138b8565b8015610f2d5780601f10610f0257610100808354040283529160200191610f2d565b820191906000526020600020905b815481529060010190602001808311610f1057829003601f168201915b505050505090506000610f3e611b8d565b9050600081511415610f54578192505050610f97565b600082511115610f89578082604051602001610f71929190613161565b60405160208183030381529060405292505050610f97565b610f9284611ba4565b925050505b919050565b6000610fa86007611c4b565b90506000610fb58261073e565b90506000610fc283610bac565b90506000610fcf84610d2c565b90506000838383604051602001610fe893929190613185565b604051602081830303815290604052905060006110048661087c565b9050600060088260098560405160200161102194939291906131b6565b604051602081830303815290604052905060006110668461104184611c59565b604051602001611052929190613243565b604051602081830303815290604052611c59565b905060008160405160200161107b91906132aa565b60405160208183030381529060405290506110ca6040518060400160405280601581526020017f0a2d2d2d2d2d2d2d2d2d2d2d2d2d2d2d2d2d2d2d2d000000000000000000000081525061127a565b6110d38161127a565b6111116040518060400160405280601581526020017f2d2d2d2d2d2d2d2d2d2d2d2d2d2d2d2d2d2d2d2d0a000000000000000000000081525061127a565b603260018a61112091906136ed565b1115611161576040517f08c379a000000000000000000000000000000000000000000000000000000000815260040161115890613499565b60405180910390fd5b61116b338a611e17565b6111758982611e35565b61117f6007611ea9565b6111a2604051806060016040528060228152602001613a8e602291398a33611ebf565b7febb98688741ffa4c7589bf325de30cf7becb63de567842e1ccdb6cb949fdc82c338a6040516111d3929190613355565b60405180910390a1505050505050505050565b6000600560008473ffffffffffffffffffffffffffffffffffffffff1673ffffffffffffffffffffffffffffffffffffffff16815260200190815260200160002060008373ffffffffffffffffffffffffffffffffffffffff1673ffffffffffffffffffffffffffffffffffffffff16815260200190815260200160002060009054906101000a900460ff16905092915050565b6113108160405160240161128e9190613399565b6040516020818303038152906040527f41304fac000000000000000000000000000000000000000000000000000000007bffffffffffffffffffffffffffffffffffffffffffffffffffffffff19166020820180517bffffffffffffffffffffffffffffffffffffffffffffffffffffffff8381831617835250505050611f5e565b50565b60007f01ffc9a7000000000000000000000000000000000000000000000000000000007bffffffffffffffffffffffffffffffffffffffffffffffffffffffff1916827bffffffffffffffffffffffffffffffffffffffffffffffffffffffff1916149050919050565b60008073ffffffffffffffffffffffffffffffffffffffff166002600084815260200190815260200160002060009054906101000a900473ffffffffffffffffffffffffffffffffffffffff1673ffffffffffffffffffffffffffffffffffffffff1614159050919050565b600033905090565b816004600083815260200190815260200160002060006101000a81548173ffffffffffffffffffffffffffffffffffffffff021916908373ffffffffffffffffffffffffffffffffffffffff160217905550808273ffffffffffffffffffffffffffffffffffffffff166114648361099a565b73ffffffffffffffffffffffffffffffffffffffff167f8c5be1e5ebec7d5bd14f71427d1e84f3dd0314c0f7b2291e5b200ac8c7c3b92560405160405180910390a45050565b60006114b58261137d565b6114f4576040517f08c379a00000000000000000000000000000000000000000000000000000000081526004016114eb90613479565b60405180910390fd5b60006114ff8361099a565b90508073ffffffffffffffffffffffffffffffffffffffff168473ffffffffffffffffffffffffffffffffffffffff16148061156e57508373ffffffffffffffffffffffffffffffffffffffff1661155684610541565b73ffffffffffffffffffffffffffffffffffffffff16145b8061157f575061157e81856111e6565b5b91505092915050565b8273ffffffffffffffffffffffffffffffffffffffff166115a88261099a565b73ffffffffffffffffffffffffffffffffffffffff16146115fe576040517f08c379a00000000000000000000000000000000000000000000000000000000081526004016115f590613599565b60405180910390fd5b600073ffffffffffffffffffffffffffffffffffffffff168273ffffffffffffffffffffffffffffffffffffffff16141561166e576040517f08c379a000000000000000000000000000000000000000000000000000000000815260040161166590613439565b60405180910390fd5b611679838383611f87565b6116846000826113f1565b6001600360008573ffffffffffffffffffffffffffffffffffffffff1673ffffffffffffffffffffffffffffffffffffffff16815260200190815260200160002060008282546116d491906137ce565b925050819055506001600360008473ffffffffffffffffffffffffffffffffffffffff1673ffffffffffffffffffffffffffffffffffffffff168152602001908152602001600020600082825461172b91906136ed565b92505081905550816002600083815260200190815260200160002060006101000a81548173ffffffffffffffffffffffffffffffffffffffff021916908373ffffffffffffffffffffffffffffffffffffffff160217905550808273ffffffffffffffffffffffffffffffffffffffff168473ffffffffffffffffffffffffffffffffffffffff167fddf252ad1be2c89b69c2b068fc378daa952ba7f163c4a11628f55a4df523b3ef60405160405180910390a4505050565b6060600082141561182c576040518060400160405280600181526020017f3000000000000000000000000000000000000000000000000000000000000000815250905061198c565b600082905060005b6000821461185e578080611847906138ea565b915050600a826118579190613743565b9150611834565b60008167ffffffffffffffff8111156118a0577f4e487b7100000000000000000000000000000000000000000000000000000000600052604160045260246000fd5b6040519080825280601f01601f1916602001820160405280156118d25781602001600182028036833780820191505090505b5090505b60008514611985576001826118eb91906137ce565b9150600a856118fa9190613933565b603061190691906136ed565b60f81b818381518110611942577f4e487b7100000000000000000000000000000000000000000000000000000000600052603260045260246000fd5b60200101907effffffffffffffffffffffffffffffffffffffffffffffffffffffffffffff1916908160001a905350600a8561197e9190613743565b94506118d6565b8093505050505b919050565b6000816040516020016119a4919061314a565b6040516020818303038152906040528051906020012060001c9050919050565b8173ffffffffffffffffffffffffffffffffffffffff168373ffffffffffffffffffffffffffffffffffffffff161415611a33576040517f08c379a0000000000000000000000000000000000000000000000000000000008152600401611a2a90613459565b60405180910390fd5b80600560008573ffffffffffffffffffffffffffffffffffffffff1673ffffffffffffffffffffffffffffffffffffffff16815260200190815260200160002060008473ffffffffffffffffffffffffffffffffffffffff1673ffffffffffffffffffffffffffffffffffffffff16815260200190815260200160002060006101000a81548160ff0219169083151502179055508173ffffffffffffffffffffffffffffffffffffffff168373ffffffffffffffffffffffffffffffffffffffff167f17307eab39ab6107e8899845ad3d59bd9653f200f220920489ca2b5937696c3183604051611b24919061337e565b60405180910390a3505050565b611b3c848484611588565b611b4884848484611f8c565b611b87576040517f08c379a0000000000000000000000000000000000000000000000000000000008152600401611b7e906133f9565b60405180910390fd5b50505050565b606060405180602001604052806000815250905090565b6060611baf8261137d565b611bee576040517f08c379a0000000000000000000000000000000000000000000000000000000008152600401611be5906135b9565b60405180910390fd5b6000611bf8611b8d565b90506000815111611c185760405180602001604052806000815250611c43565b80611c22846117e4565b604051602001611c33929190613161565b6040516020818303038152906040525b915050919050565b600081600001549050919050565b60606000825190506000811415611c825760405180602001604052806000815250915050611e12565b60006003600283611c9391906136ed565b611c9d9190613743565b6004611ca99190613774565b90506000602082611cba91906136ed565b67ffffffffffffffff811115611cf9577f4e487b7100000000000000000000000000000000000000000000000000000000600052604160045260246000fd5b6040519080825280601f01601f191660200182016040528015611d2b5781602001600182028036833780820191505090505b5090506000604051806060016040528060408152602001613ab0604091399050600181016020830160005b86811015611dcf5760038101905062ffffff818a015116603f8160121c168401518060081b905060ff603f83600c1c1686015116810190508060081b905060ff603f8360061c1686015116810190508060081b905060ff603f831686015116810190508060e01b90508084526004840193505050611d56565b506003860660018114611de95760028114611df957611e04565b613d3d60f01b6002830352611e04565b603d60f81b60018303525b508484525050819450505050505b919050565b611e31828260405180602001604052806000815250612123565b5050565b611e3e8261137d565b611e7d576040517f08c379a0000000000000000000000000000000000000000000000000000000008152600401611e7490613519565b60405180910390fd5b80600660008481526020019081526020016000209080519060200190611ea492919061235f565b505050565b6001816000016000828254019250508190555050565b611f59838383604051602401611ed7939291906133bb565b6040516020818303038152906040527fe3849f79000000000000000000000000000000000000000000000000000000007bffffffffffffffffffffffffffffffffffffffffffffffffffffffff19166020820180517bffffffffffffffffffffffffffffffffffffffffffffffffffffffff8381831617835250505050611f5e565b505050565b60008151905060006a636f6e736f6c652e6c6f679050602083016000808483855afa5050505050565b505050565b6000611fad8473ffffffffffffffffffffffffffffffffffffffff1661217e565b15612116578373ffffffffffffffffffffffffffffffffffffffff1663150b7a02611fd66113e9565b8786866040518563ffffffff1660e01b8152600401611ff89493929190613309565b602060405180830381600087803b15801561201257600080fd5b505af192505050801561204357506040513d601f19601f8201168201806040525081019061204091906126a3565b60015b6120c6573d8060008114612073576040519150601f19603f3d011682016040523d82523d6000602084013e612078565b606091505b506000815114156120be576040517f08c379a00000000000000000000000000000000000000000000000000000000081526004016120b5906133f9565b60405180910390fd5b805181602001fd5b63150b7a0260e01b7bffffffffffffffffffffffffffffffffffffffffffffffffffffffff1916817bffffffffffffffffffffffffffffffffffffffffffffffffffffffff19161491505061211b565b600190505b949350505050565b61212d8383612191565b61213a6000848484611f8c565b612179576040517f08c379a0000000000000000000000000000000000000000000000000000000008152600401612170906133f9565b60405180910390fd5b505050565b600080823b905060008111915050919050565b600073ffffffffffffffffffffffffffffffffffffffff168273ffffffffffffffffffffffffffffffffffffffff161415612201576040517f08c379a00000000000000000000000000000000000000000000000000000000081526004016121f890613539565b60405180910390fd5b61220a8161137d565b1561224a576040517f08c379a000000000000000000000000000000000000000000000000000000000815260040161224190613419565b60405180910390fd5b61225660008383611f87565b6001600360008473ffffffffffffffffffffffffffffffffffffffff1673ffffffffffffffffffffffffffffffffffffffff16815260200190815260200160002060008282546122a691906136ed565b92505081905550816002600083815260200190815260200160002060006101000a81548173ffffffffffffffffffffffffffffffffffffffff021916908373ffffffffffffffffffffffffffffffffffffffff160217905550808273ffffffffffffffffffffffffffffffffffffffff16600073ffffffffffffffffffffffffffffffffffffffff167fddf252ad1be2c89b69c2b068fc378daa952ba7f163c4a11628f55a4df523b3ef60405160405180910390a45050565b82805461236b906138b8565b90600052602060002090601f01602090048101928261238d57600085556123d4565b82601f106123a657805160ff19168380011785556123d4565b828001600101855582156123d4579182015b828111156123d35782518255916020019190600101906123b8565b5b5090506123e191906123e5565b5090565b5b808211156123fe5760008160009055506001016123e6565b5090565b600061241561241084613665565b613634565b90508281526020810184848401111561242d57600080fd5b612438848285613876565b509392505050565b60008135905061244f81613a31565b92915050565b60008135905061246481613a48565b92915050565b60008135905061247981613a5f565b92915050565b60008151905061248e81613a5f565b92915050565b600082601f8301126124a557600080fd5b81356124b5848260208601612402565b91505092915050565b6000813590506124cd81613a76565b92915050565b6000602082840312156124e557600080fd5b60006124f384828501612440565b91505092915050565b6000806040838503121561250f57600080fd5b600061251d85828601612440565b925050602061252e85828601612440565b9150509250929050565b60008060006060848603121561254d57600080fd5b600061255b86828701612440565b935050602061256c86828701612440565b925050604061257d868287016124be565b9150509250925092565b6000806000806080858703121561259d57600080fd5b60006125ab87828801612440565b94505060206125bc87828801612440565b93505060406125cd878288016124be565b925050606085013567ffffffffffffffff8111156125ea57600080fd5b6125f687828801612494565b91505092959194509250565b6000806040838503121561261557600080fd5b600061262385828601612440565b925050602061263485828601612455565b9150509250929050565b6000806040838503121561265157600080fd5b600061265f85828601612440565b9250506020612670858286016124be565b9150509250929050565b60006020828403121561268c57600080fd5b600061269a8482850161246a565b91505092915050565b6000602082840312156126b557600080fd5b60006126c38482850161247f565b91505092915050565b6000602082840312156126de57600080fd5b60006126ec848285016124be565b91505092915050565b6126fe81613802565b82525050565b61270d81613814565b82525050565b600061271e826136aa565b61272881856136c0565b9350612738818560208601613885565b61274181613a20565b840191505092915050565b6000612757826136b5565b61276181856136d1565b9350612771818560208601613885565b61277a81613a20565b840191505092915050565b6000612790826136b5565b61279a81856136e2565b93506127aa818560208601613885565b80840191505092915050565b600081546127c3816138b8565b6127cd81866136e2565b945060018216600081146127e857600181146127f95761282c565b60ff1983168652818601935061282c565b61280285613695565b60005b8381101561282457815481890152600182019150602081019050612805565b838801955050505b50505092915050565b60006128426032836136d1565b91507f4552433732313a207472616e7366657220746f206e6f6e20455243373231526560008301527f63656976657220696d706c656d656e74657200000000000000000000000000006020830152604082019050919050565b60006128a8601c836136d1565b91507f4552433732313a20746f6b656e20616c7265616479206d696e746564000000006000830152602082019050919050565b60006128e8600a836136e2565b91507f54484952445f574f5244000000000000000000000000000000000000000000006000830152600a82019050919050565b60006129286024836136d1565b91507f4552433732313a207472616e7366657220746f20746865207a65726f2061646460008301527f72657373000000000000000000000000000000000000000000000000000000006020830152604082019050919050565b600061298e6019836136d1565b91507f4552433732313a20617070726f766520746f2063616c6c6572000000000000006000830152602082019050919050565b60006129ce600b836136e2565b91507f5345434f4e445f574f52440000000000000000000000000000000000000000006000830152600b82019050919050565b6000612a0e602c836136d1565b91507f4552433732313a206f70657261746f7220717565727920666f72206e6f6e657860008301527f697374656e7420746f6b656e00000000000000000000000000000000000000006020830152604082019050919050565b6000612a74600d836136e2565b91507f3c2f746578743e3c2f7376673e000000000000000000000000000000000000006000830152600d82019050919050565b6000612ab46020836136d1565b91507f576520686176652061206d617820737570706c79206f66203530204e465473216000830152602082019050919050565b6000612af46038836136d1565b91507f4552433732313a20617070726f76652063616c6c6572206973206e6f74206f7760008301527f6e6572206e6f7220617070726f76656420666f7220616c6c00000000000000006020830152604082019050919050565b6000612b5a602a836136d1565b91507f4552433732313a2062616c616e636520717565727920666f7220746865207a6560008301527f726f2061646472657373000000000000000000000000000000000000000000006020830152604082019050919050565b6000612bc06029836136d1565b91507f4552433732313a206f776e657220717565727920666f72206e6f6e657869737460008301527f656e7420746f6b656e00000000000000000000000000000000000000000000006020830152604082019050919050565b6000612c26602e836136d1565b91507f45524337323155524953746f726167653a2055524920736574206f66206e6f6e60008301527f6578697374656e7420746f6b656e0000000000000000000000000000000000006020830152604082019050919050565b6000612c8c608f836136e2565b91507f222c20226465736372697074696f6e223a202231303025206f6e2d636861696e60008301527f2c2064796e616d6963616c6c792067656e65726174656420746872656520776f60208301527f726420636f6d62696e6174696f6e73207769746820707265747479206261636b60408301527f67726f756e64732e222c2022696d616765223a2022646174613a696d6167652f60608301527f7376672b786d6c3b6261736536342c00000000000000000000000000000000006080830152608f82019050919050565b6000612d646002836136e2565b91507f227d0000000000000000000000000000000000000000000000000000000000006000830152600282019050919050565b6000612da46020836136d1565b91507f4552433732313a206d696e7420746f20746865207a65726f20616464726573736000830152602082019050919050565b6000612de46031836136d1565b91507f45524337323155524953746f726167653a2055524920717565727920666f722060008301527f6e6f6e6578697374656e7420746f6b656e0000000000000000000000000000006020830152604082019050919050565b6000612e4a602c836136d1565b91507f4552433732313a20617070726f76656420717565727920666f72206e6f6e657860008301527f697374656e7420746f6b656e00000000000000000000000000000000000000006020830152604082019050919050565b6000612eb06029836136d1565b91507f4552433732313a207472616e73666572206f6620746f6b656e2074686174206960008301527f73206e6f74206f776e00000000000000000000000000000000000000000000006020830152604082019050919050565b6000612f16602f836136d1565b91507f4552433732314d657461646174613a2055524920717565727920666f72206e6f60008301527f6e6578697374656e7420746f6b656e00000000000000000000000000000000006020830152604082019050919050565b6000612f7c600a836136e2565b91507f7b226e616d65223a2022000000000000000000000000000000000000000000006000830152600a82019050919050565b6000612fbc6021836136d1565b91507f4552433732313a20617070726f76616c20746f2063757272656e74206f776e6560008301527f72000000000000000000000000000000000000000000000000000000000000006020830152604082019050919050565b6000613022600a836136e2565b91507f46495253545f574f5244000000000000000000000000000000000000000000006000830152600a82019050919050565b6000613062601d836136e2565b91507f646174613a6170706c69636174696f6e2f6a736f6e3b6261736536342c0000006000830152601d82019050919050565b60006130a26031836136d1565b91507f4552433732313a207472616e736665722063616c6c6572206973206e6f74206f60008301527f776e6572206e6f7220617070726f7665640000000000000000000000000000006020830152604082019050919050565b60006131086005836136e2565b91507f434f4c4f520000000000000000000000000000000000000000000000000000006000830152600582019050919050565b6131448161386c565b82525050565b60006131568284612785565b915081905092915050565b600061316d8285612785565b91506131798284612785565b91508190509392505050565b60006131918286612785565b915061319d8285612785565b91506131a98284612785565b9150819050949350505050565b60006131c282876127b6565b91506131ce8286612785565b91506131da82856127b6565b91506131e68284612785565b91506131f182612a67565b915081905095945050505050565b600061320a826128db565b91506132168284612785565b915081905092915050565b600061322c826129c1565b91506132388284612785565b915081905092915050565b600061324e82612f6f565b915061325a8285612785565b915061326582612c7f565b91506132718284612785565b915061327c82612d57565b91508190509392505050565b600061329382613015565b915061329f8284612785565b915081905092915050565b60006132b582613055565b91506132c18284612785565b915081905092915050565b60006132d7826130fb565b91506132e38284612785565b915081905092915050565b600060208201905061330360008301846126f5565b92915050565b600060808201905061331e60008301876126f5565b61332b60208301866126f5565b613338604083018561313b565b818103606083015261334a8184612713565b905095945050505050565b600060408201905061336a60008301856126f5565b613377602083018461313b565b9392505050565b60006020820190506133936000830184612704565b92915050565b600060208201905081810360008301526133b3818461274c565b905092915050565b600060608201905081810360008301526133d5818661274c565b90506133e4602083018561313b565b6133f160408301846126f5565b949350505050565b6000602082019050818103600083015261341281612835565b9050919050565b600060208201905081810360008301526134328161289b565b9050919050565b600060208201905081810360008301526134528161291b565b9050919050565b6000602082019050818103600083015261347281612981565b9050919050565b6000602082019050818103600083015261349281612a01565b9050919050565b600060208201905081810360008301526134b281612aa7565b9050919050565b600060208201905081810360008301526134d281612ae7565b9050919050565b600060208201905081810360008301526134f281612b4d565b9050919050565b6000602082019050818103600083015261351281612bb3565b9050919050565b6000602082019050818103600083015261353281612c19565b9050919050565b6000602082019050818103600083015261355281612d97565b9050919050565b6000602082019050818103600083015261357281612dd7565b9050919050565b6000602082019050818103600083015261359281612e3d565b9050919050565b600060208201905081810360008301526135b281612ea3565b9050919050565b600060208201905081810360008301526135d281612f09565b9050919050565b600060208201905081810360008301526135f281612faf565b9050919050565b6000602082019050818103600083015261361281613095565b9050919050565b600060208201905061362e600083018461313b565b92915050565b6000604051905081810181811067ffffffffffffffff8211171561365b5761365a6139f1565b5b8060405250919050565b600067ffffffffffffffff8211156136805761367f6139f1565b5b601f19601f8301169050602081019050919050565b60008190508160005260206000209050919050565b600081519050919050565b600081519050919050565b600082825260208201905092915050565b600082825260208201905092915050565b600081905092915050565b60006136f88261386c565b91506137038361386c565b9250827fffffffffffffffffffffffffffffffffffffffffffffffffffffffffffffffff0382111561373857613737613964565b5b828201905092915050565b600061374e8261386c565b91506137598361386c565b92508261376957613768613993565b5b828204905092915050565b600061377f8261386c565b915061378a8361386c565b9250817fffffffffffffffffffffffffffffffffffffffffffffffffffffffffffffffff04831182151516156137c3576137c2613964565b5b828202905092915050565b60006137d98261386c565b91506137e48361386c565b9250828210156137f7576137f6613964565b5b828203905092915050565b600061380d8261384c565b9050919050565b60008115159050919050565b60007fffffffff0000000000000000000000000000000000000000000000000000000082169050919050565b600073ffffffffffffffffffffffffffffffffffffffff82169050919050565b6000819050919050565b82818337600083830152505050565b60005b838110156138a3578082015181840152602081019050613888565b838111156138b2576000848401525b50505050565b600060028204905060018216806138d057607f821691505b602082108114156138e4576138e36139c2565b5b50919050565b60006138f58261386c565b91507fffffffffffffffffffffffffffffffffffffffffffffffffffffffffffffffff82141561392857613927613964565b5b600182019050919050565b600061393e8261386c565b91506139498361386c565b92508261395957613958613993565b5b828206905092915050565b7f4e487b7100000000000000000000000000000000000000000000000000000000600052601160045260246000fd5b7f4e487b7100000000000000000000000000000000000000000000000000000000600052601260045260246000fd5b7f4e487b7100000000000000000000000000000000000000000000000000000000600052602260045260246000fd5b7f4e487b7100000000000000000000000000000000000000000000000000000000600052604160045260246000fd5b6000601f19601f8301169050919050565b613a3a81613802565b8114613a4557600080fd5b50565b613a5181613814565b8114613a5c57600080fd5b50565b613a6881613820565b8114613a7357600080fd5b50565b613a7f8161386c565b8114613a8a57600080fd5b5056fe416e204e4654207769746820494420257320776173206d696e74656420746f2025734142434445464748494a4b4c4d4e4f505152535455565758595a6162636465666768696a6b6c6d6e6f707172737475767778797a303132333435363738392b2fa2646970667358221220cbf4809bc2851ed4b81361f90719e33f4dea5c4105658484b5a36dc5363d6c8764736f6c634300080000333c73766720786d6c6e733d27687474703a2f2f7777772e77332e6f72672f323030302f73766727207072657365727665417370656374526174696f3d27784d696e594d696e206d656574272076696577426f783d273020302033353020333530273e3c7374796c653e2e62617365207b2066696c6c3a2077686974653b20666f6e742d66616d696c793a2073657269663b20666f6e742d73697a653a20323470783b207d3c2f7374796c653e3c726563742077696474683d273130302527206865696768743d2731303025272066696c6c3d27272f3e3c7465787420783d273530252720793d273530252720636c6173733d27626173652720646f6d696e616e742d626173656c696e653d276d6964646c652720746578742d616e63686f723d276d6964646c65273e",
  "linkReferences": {},
  "deployedLinkReferences": {}
}